:10000000000800206918000055C4010055C4010013
:1000100047E2010055C4010055C4010055C4010068
:1000200055C4010055C4010055C4010055C4010068
:1000300055C4010055C4010055C4010055C4010058
:1000400055C4010055C4010055C4010055C4010048
:1000500055C4010055C4010055C4010055C4010038
:1000600055C4010055C4010055C4010055C4010028
:100070009105010055C4010055C4010055C401009B
:1000800055C4010055C4010055C4010055C4010008
:1000900055C401003521000055C4010055C40100BC
:1000A00055C401000D1D0000E51C000055C40100F1
:1000B00055C401003196010055C401001DA1010085
:1000C0002F0702002B070200FD98010045070200E0
:1000D00033070200EDA00100370702005DA1010017
:1000E000597B0100997D0100CDA1010055C401009B
:1000F00055C4010055C4010055C4010055C4010098
:1001000055C4010055C4010055C4010055C4010087
:1001100055C4010055C4010055C4010055C4010077
:1001200055C4010055C4010055C4010055C4010067
:1001300055C4010055C401004914000039140000E1
:1001400030BF094BD3F8F03013F0010F0BD082B061
:100150000023019302E0019B01330193019B052BD6
:10016000F9DD02B07047704700ED00E000000000CC
:10017000000000000000000000000000000000007F
:10018000013800D0FCE770472DE9F04F2DED028BD0
:1001900093B082460C4693461D4657EC106B8DED8E
:1001A000080B32463B46304639461AF0F3FC00282D
:1001B00000F009814FF0FF32B14B304639461AF05A
:1001C00011FD002840F0FF804FF0FF326FF48013E4
:1001D000304639461AF0E8FC002840F0F48000224E
:1001E0000023DDE90867304639461AF0DDFC0028B7
:1001F00040F0FC809DED087B8DED067B209B13F489
:100200008063119301D106231E93DDE906010246A6
:10021000C1F30A50C1F31303904643F07F5949F4E8
:100220004019A0F2FF301AF0E3F983A3D3E90023C9
:100230001AF048FA82A3D3E900231AF08DF8064693
:100240000F4600228F4B404649461AF083F87EA3A2
:10025000D3E900231AF036FA02460B4630463946F7
:100260001AF07AF81AF0C8FC06461AF0C1F980466E
:10027000894677A3D3E900231AF024FA0022824B9F
:100280001AF06AF81AF0B8FC074673A3D3E9002302
:10029000404649461AF016FA8046894638461AF012
:1002A000A7F96FA3D3E900231AF00CFA02460B4614
:1002B000404649461AF04EF88046894602460B46AB
:1002C0001AF000FACDE90C0107F2FF3700210022F5
:1002D000CDE90A123B050B9300230A9342464B4695
:1002E000404649461AF038F8CDE90E0142464B46E1
:1002F00000204FF080411AF02DF8804689460022F8
:10030000624BDDE90C011AF007FB0022604B1AF08A
:1003100023F802460B46DDE90C011AF0FDFA002233
:100320005C4B1AF019F802460B46DDE90C011AF095
:10033000F3FA02460B46404649461AF00DF80246CB
:100340000B46DDE90E011AF0E7FA0022524B1AF0D3
:1003500003F8DDE90A231AF0B5F98046894649EC2D
:10036000188BDDE906231AF03DFC40B1013E002266
:10037000474B404649461AF0CFFA41EC180B06F1BC
:100380006303C62B3BD80427209B13F4006F40D097
:1003900035A3D3E90023DDE90689404649461AF032
:1003A00017FC00283BD032A3D3E90023404649463E
:1003B0001AF0FAFB002832D01E9BB34221DD9E1BAF
:1003C000731E1E931FE0209B02931F9B01931E9B95
:1003D00000939DED080B2B465A462146504600F0EF
:1003E000CBF813B0BDEC028BBDE8F08F9FED227B04
:1003F0008DED067B069607F100430793FEE6052781
:10040000C2E700231E93209B43F4806320930027C0
:100410003E461F9B9F4241D2A3EB070840E01E9B34
:10042000002BF6D0119B002BF3D01E9B013B1E939B
:10043000EFE700BFAFF30080FB799F501344D33F39
:10044000B3C8608B288AC63F61436F63A787D23FDA
:1004500071A379094F930A401655B5BBB16B0240A1
:10046000EF39FAFE422EE63F2D431CEBE2361A3FEF
:100470000000000080842E41000000000000000009
:10048000FFFFEF7F0000F83F0000E03F00002C403E
:1004900000002440000018400000F03F4FF000082A
:1004A000209B13F0020902D00FB14FF000083EB1BB
:1004B00053EC182BDDE906011AF02EFACDE90601FE
:1004C00000220023DDE908011AF06EFB00283BD171
:1004D000209B23F400630293CDF804801E9B0093BD
:1004E0009DED060B2B465A462146504600F044F837
:1004F000002F3FF476AF209B13F0200F2CD04FF04D
:10050000450C00F101082B46024621466046D047C3
:1005100086EAE672A2EBE67205230593013F049793
:10052000002303930A230293F30F019300922B46B7
:100530004246214650461EF085F8B9F1000F3FF4BF
:1005400050AF02461F9F10E0DDE90601024601F1AF
:100550000043CDE90623BBE74FF0650CD1E7561CFD
:100560002B4621462020D0473246A2EB0B03BB424C
:10057000F5D3104635E700BF2DE9F04F2DED028B86
:1005800093B00590089192469B4659EC108B1E9DA6
:1005900042464B46404649461AF0FCFA002840D0F5
:1005A0004FF0FF326FF48013404649461AF0FCFAD0
:1005B000002845D14FF0FF32B14B404649461AF072
:1005C00011FB00284BD1AAA3D3E90023404649469A
:1005D0001AF008FB00285AD1A7A3D3E9002340460C
:1005E00049461AF0E1FA002851D100220023404682
:1005F00049461AF0D9FA002857D100230993209BC5
:1006000013F4806F5CD000241F2C5BD8092D59D9BE
:1006100004F148036B44302203F8202C013D0134DF
:10062000F2E7209B03931F9B029303230193954BB7
:1006300000935B465246089905981DF029FF10E18A
:10064000209B03931F9B0293042301938E4B0093E3
:100650005B465246089905981DF01AFF01E1209B60
:1006600013F004030FD0894A7BB10423209903912E
:100670001F990291019300925B4652460899059892
:100680001DF006FFEDE0824AEEE70323EEE7209B34
:1006900002931F9B0193009549EC108B5B465246D9
:1006A00008990598FFF770FDDBE042464B460020B5
:1006B000002119F04FFE80468946012309939EE7E9
:1006C0000625A0E7404649461AF096FA064619F074
:1006D0008FFF02460B464046494619F03BFE6D4BE4
:1006E00003EBC50393ED008B53EC182B19F0EAFFD5
:1006F00002460B46CDE906231AF0A6FA074619F082
:1007000067FF02460B46DDE9060119F023FE0246AB
:100710000B46CDE9062300225F4B1AF063FA50B373
:100720000137384619F054FF02460B4651EC180BBE
:100730001AF044FA08B10136002755BB304619F0CB
:1007400057FF02460B464046494619F003FE8046D5
:1007500089460022504B1AF027FA38B100224E4B3E
:10076000404649461AF03EFA002842D016F0010FE2
:100770003FD001363DE00022474BDDE906011AF08B
:1007800013FA0028D9D117B117F0010FD5D00137CE
:10079000D3E71F2C17D8013D404BA3FB0723DB08F1
:1007A000194603EB8303A7EB4303621C303304F1C8
:1007B00048000DEB000404F8203C092F02D90F4635
:1007C0001446E6E714461F2C0AD86B1E45B104F107
:1007D00048026A44302102F8201C1D460134F2E729
:1007E0001F2C06D804F148036B442E2203F8202C5A
:1007F00001341F2C17D82A4A82FB0632F317C3EBA9
:10080000A2031A4603EB8303A6EB4303611C3033B8
:1008100004F148000DEB000404F8203C16460AB130
:100820000C46E6E70C46209B03F00303012B39D06E
:100830001F2C09D8099B002B51D004F148036B44AD
:100840002D2203F8202C0134209B03931F9B02933D
:1008500001940AAB00935B465246089905981DF037
:1008600017FE13B0BDEC028BBDE8F08FAFF3008034
:100870000000000065CDCD410000000065CDCDC178
:10088000FFFFEF7F0C0903001009030000090300BC
:1008900008090300180903000000E03FCDCCCCCCD0
:1008A000676666661F9BB3B1099B1BB9209B13F05B
:1008B0000C0F12D01F9B013B1F93194606E004F159
:1008C00048036B44302203F8202C01348C42AFD211
:1008D0001F2CF4D9ACE71F99F8E71F99F6E7209B86
:1008E00013F0040F07D004F148036B442B2203F8E4
:1008F000202C0134A8E7209B13F0080FA4D004F1AA
:1009000048036B44202203F8202C01349CE700BFED
:1009100038B508462DED028B154619F059FE1FA378
:10092000D3E9002319F0F8FF02460B4643EC182BDD
:10093000002200231AF042F9044648BBB0EE480AF0
:10094000F0EE680A00F03CF816A3D3E9002351EC5E
:10095000100B19F001FD02460B4614A1D1E900016C
:1009600019F0DAFF13A3D3E9002319F0F3FC0022F6
:10097000094B19F0A7FE41EC100B1BF01FFC51ECCA
:10098000100B1AF039F928802046BDEC028B38BDD7
:100990002120FAE7AFF300800000204000000000B3
:1009A000006AF8409679D0187A2C2C40000000009C
:1009B0000068B0406666666666127140000000001E
:1009C00038B555EC104B2DED028B00F045F8224662
:1009D0002B4620462946B0EE408AF0EE608A1BF096
:1009E0003BFC98B900220023204629461AF0FAF869
:1009F00060B900220023204629461AF0CBF860B1E6
:100A00001AF0E0FF22239FED0C8B0360B0EE480A42
:100A1000F0EE680ABDEC028B38BD1AF0D3FF21223C
:100A200003460748BDEC028B1A60BDE8384000F071
:100A30000BB800BFAFF30080000000000000F0FF23
:100A4000C8070300000000009FED010B704700BFC6
:100A5000000000000000F87F53EC102BB3F5801F5E
:100A60002DE9F04F1C4687B058DA23F000411046BC
:100A7000114300F0F780002B1946C0F234810022A8
:100A8000D94B19F01FFE0C460B46D84902466FF0B1
:100A900035008C4246DC2515D549C4F31304A5F274
:100AA000FF3521440544D34801F48011484005EB4B
:100AB000115540EA0403104600221946CD4B19F0A7
:100AC00049FCA31C82468B46C3F31303022B32DC82
:100AD000002200231AF05EF8002800F0CE80002DDE
:100AE00000F09281284619F083FD06460F46AAA31E
:100AF000D3E9002319F0E6FD04460D463046394699
:100B0000A7A3D3E9002319F0DDFD02460B462046DA
:100B1000294619F021FC41EC100B09E0B3490020F3
:100B20008C42B8DD1046194619F016FC41EC100B4A
:100B300007B0BDE8F08F00224FF0804319F00CFCA5
:100B400002460B4650465946DFF8B88219F0E4FEDB
:100B500006460F46284619F04BFD32463B46A04458
:100B6000CDE9040130463946CDE9026719F0AAFD06
:100B700002460B46CDE9002319F0A4FD06460F46B8
:100B800089A3D3E9002319F09DFD89A3D3E90023AC
:100B900019F0E2FB32463B4619F094FD86A3D3E9F7
:100BA000002319F0D9FB32463B4619F08BFD84A394
:100BB000D3E9002319F0D0FBDDE9002319F082FD11
:100BC00081A3D3E90023CDE900013046394619F06D
:100BD00079FD7FA3D3E9002319F0BEFB32463B46E3
:100BE00019F070FD7CA3D3E9002319F0B5FB324660
:100BF0003B4619F067FD0B460246DDE9000119F09E
:100C0000ABFB7D4B06460F461B1B43EA0803002B3C
:100C10005BDD0022794B5046594619F053FD524690
:100C20005B4619F04FFD80468946002D64D142464F
:100C30004B463046394619F08FFBDDE9022319F0A7
:100C400041FD02460B464046494619F083FB0246E9
:100C50000B465046594619F07DFB41EC100B07B08E
:100C6000BDE8F08F002200230020654919F054FEF2
:100C700041EC100B07B0BDE8F08F59A3D3E9002376
:100C80005046594619F01EFD02460B4600205B49AE
:100C900019F060FB06460F4652465B4650465946E1
:100CA00019F010FD02460B463046394619F00AFD90
:100CB00006460F46002D56D102460B465046594671
:100CC00019F048FB41EC100B32E7002D40F09F80FB
:100CD00002460B465046594619F03CFBDDE902231B
:100CE00019F0F0FCB3E719F035FB0022002319F0EE
:100CF00013FE41EC100B1BE727A3D3E90023DDE92A
:100D0000040119F0DFFC42464B4604460D463046CE
:100D1000394619F021FBDDE9022319F0D3FC064620
:100D20000F461FA3D3E90023DDE9040119F0CAFC33
:100D300002460B463046394619F00EFB02460B467A
:100D40004046494619F006FB52465B4619F002FB45
:100D500002460B462046294619F0FCFA41EC100BDE
:100D600007B0BDE8F08F284619F042FC804689465E
:100D700009A3D3E9002319F0A5FC04460D4640461B
:100D8000494607A3D3E9002319F09CFC02460B4611
:100D900030463946D6E700BF0000E0FE422EE63F6F
:100DA000763C7935EF39EA3D44523EDF12F1C23FDD
:100DB000DE03CB966446C73F599322942449D23F21
:100DC000935555555555E53F9FC678D0099AC33F71
:100DD000AF788E1DC571CC3F04FA97999999D93F88
:100DE000555555555555D53F00005043FFFFEF7FF2
:100DF000645F09000000F03F51B806000000E03FCA
:100E0000000050C386EBF9FF9FED0D0B90E6DDE986
:100E100004890DA3D3E900234046494619F052FC4A
:100E200032463B4604460D465046594619F092FA62
:100E3000DDE9022319F046FC06460F469FE700BF96
:100E400000000000000000000000E0FE422EE63F2F
:100E50000348044B834202D0034B03B11847704749
:100E60008C6400208C64002000000000064B0749C1
:100E7000C91A891048BF0131491003D0044B0BB186
:100E800001481847704700BF8C6400208C64002024
:100E90000000000010B5064C237843B9FFF7D8FFD7
:100EA000044B13B10448AFF300800123237010BD3D
:100EB000B65D002000000000845B030008B5054B10
:100EC0001BB105490548AFF30080BDE80840FFF7B6
:100ED000CDBF00BF00000000200B0020845B03009A
:100EE000A3F5803A704700BF174B002B08BF134B88
:100EF0009D46FFF7F5FF00218B460F461348144A25
:100F0000121A1FF0C0FC0E4B002B00D098470D4B5F
:100F1000002B00D098470020002104000D000D4850
:100F2000002802D00C48AFF300801AF051FD2000D9
:100F300029001BF0DFF91AF087F800BF0000080055
:100F40000000000000000000000800200008002051
:100F5000405E0020000000000000000082B0094B4D
:100F60001B68094AA2FB03239B0D03FB00F000232F
:100F7000019302E0019B01330193019B8342F9D36A
:100F800002B07047D45E00206BCA5F6B30B585B08D
:100F90000121242001F0D2FA00240094019402944B
:100FA000039401238DF8003040F2FF33ADF8023096
:100FB000054D694628461BF0FEFD214628461BF0DC
:100FC00061F905B030BD00BF008004502DE9F0414B
:100FD00006460F46254C04F500588025C8F81050E9
:100FE0000220FFF7BBFF04F5805425610A20FFF7BC
:100FF000B5FFC8F810501E4D06EB46031B011D4CF3
:101000001C442368FB4013F0010F01D1013DF3D1D3
:1010100015B3002118481BF035F92368FB4013F085
:10102000010F01D0013DF8D1CDB1134B5B6A104ADD
:1010300002FB03F3114A1268920AB3FBF2F340F287
:10104000571202FB03F30E48A0FB0320800B0D4A4E
:10105000934207D2BDE8F08142F66730FAE742F2E8
:101060000F70F7E742F20F70F4E700BF00C00350C3
:1010700040420F0014C0035000800450D45E002092
:101080005917B7D120ED240008B5024810F076F8C2
:1010900008BD00BFA01A020038B52F4B1B789BB1CA
:1010A00001210846FFF792FF044603210846FFF797
:1010B0008DFF054642F20F739C420DD198420FD12D
:1010C000264810F05BF812E01BF0F0F8FFF75EFF27
:1010D000214B01221A70E3E72146214810F04EF817
:1010E00042F20F739D4216D11E48FFF737FF632C63
:1010F00001D9632D14D81C4B01221A64631E302BB6
:1011000002D96B1E302B0FD8174B02221A671748D3
:10111000FFF724FF38BD2946154810F02FF8E3E704
:10112000144B01221A64E9E7143C4F2C02D9143DF8
:101130004F2D0CD8104C04F5805302251D6747F243
:101140003050FFF70BFF04F500542567DFE7094B2C
:1011500002221A67DBE700BFB75D0020B81A020061
:10116000CC1A020040420F0000D0035020A107001B
:10117000E81A020000E0035000C0035000B585B03B
:10118000094B1868094B1860094B0A4A13600A4A50
:1011900001920A4A12680292039301A91CF08AF88C
:1011A00005B05DF804FB00BFA85E0020E44300200A
:1011B0009C5E0020E0430020CCA50200C45E00201D
:1011C00038B50EF0C7FA0446064D2B68D3F8B002C6
:1011D0000EF0B4FA28681CF085F820460EF0AEFA3E
:1011E00038BD00BFA85E0020044B1B68834202D0BC
:1011F000034B186870470148704700BF1813002060
:101200003813002008B50948094B1860094B1B68C2
:1012100003600A23C360084B4361084B8360084B9B
:101220004360002303761CF064FD08BD1813002002
:1012300038130020A85E0020180E0020E0A5020050
:10124000ECA5020008B501F043FA01F081FC224A46
:10125000136F23F0070343F003031367012001F02A
:101260009DFC1E4B9B6A13F0020F02D11C4B012206
:101270009A62194BD3F8202122F0030242F00202B5
:10128000C3F82021D3F8242122F0070242F0020201
:10129000C3F82421D3F8402122F0030242F00202D5
:1012A000C3F84021D3F8602122F0030242F0020289
:1012B000C3F86021D3F8402222F0030242F0020278
:1012C000C3F84022D3F8002222F0070242F00202C3
:1012D000C3F80022002008BD0080005000C000506C
:1012E00000E0005008B502F0A3FA012800D008BDC4
:1012F000094B5A6E03F580534FF48021596603F56C
:1013000010430421196212F4802FF0D1A3F5004399
:101310004FF480225A66EAE700800050002306203E
:1013200073B1704754B224B9013353B15DF8044B23
:1013300070470228F8D008680A4908601046F3E7A9
:1013400010B4094A52F823100A7A022AEAD9032A69
:10135000EAD1441EE4B2012CE6D9086801490860CC
:101360001046E1E73C130020AC5E002030B591B0A0
:101370001C4C0DF1240CA646BEE80F00ACE80F0093
:101380009EE807008CE8070007AB1C3494E80300D4
:1013900083E803000DF1040C0024019402940394EB
:1013A0000494059406948CE803003E238DF80C30D9
:1013B0003F238DF80D300C4B04932023059301231C
:1013C0008DF81830094B09AA614609480EF072FAE7
:1013D000054621464FF4E1301BF02DF8284611B0A8
:1013E00030BD00BF04A6020040130020601300209F
:1013F000D013002008B531B9084B186803680BB149
:101400000EF0C4FD08BD0229FCD8044B186803681F
:10141000002BF7D01CF0DCFEF4E700BFC05E00201C
:1014200008B5034903480EF077FEFFF79FFF08BD9C
:10143000C85E0020F413002008B502481CF0F5FC3B
:1014400008BD00BFD013002008B502481CF0EDFC19
:1014500008BD00BFD013002010B58AB0002306934A
:10146000079308930993254B0693254906A80FF087
:1014700045FF244B186030B10023059305A91DF0EA
:10148000FFFD08B1FEE7FEE71E4C1F4A1F4B19681F
:10149000206810F095F9002120681BF0C9FE00B10A
:1014A000FEE71B49174B186810F044FA00B1FEE73D
:1014B000184A40F23F23CDE900234FF0FF324FF0AE
:1014C000FF33104908681DF05BFB00B1FEE7124BCB
:1014D0001B88ADF81030ADF80C3004A9094B186822
:1014E0001DF02BFB00B1FEE703A9064B18681DF0A9
:1014F0003CFB00B1FEE70AB010BD00BFEDC3010028
:10150000D1C30100D05E0020D9C301008C5E002051
:1015100007001100EFFFF3FF28A6020082B0054B81
:10152000019302AB03EB800050F8043C186802B052
:10153000704700BFD05E002000B587B000238DF853
:10154000143004228DF815208DF810308DF81120FC
:101550008DF80C308DF80D20274A1288ADF8082040
:101560008DF804308DF80530202816DC98423CDDDB
:1015700001381F283BD8DFE800F01C233A3A3A3AFA
:101580003A2A3A3A3A3A3A3A3A3A3A3A3A3A3A3ACB
:101590003A3A3A3A3A3A3A3A3A31402807D10022AE
:1015A00004210DEB010000F0EBFA002020E00E20FA
:1015B0001EE00022042105A800F0E2FA002017E056
:1015C0000022042104A800F0DBFA002010E0002231
:1015D000042103A800F0D4FA002009E0002204212D
:1015E00002A800F0CDFA002002E00E2000E00E205C
:1015F00007B05DF804FB00BF2CA6020008B5044844
:101600001CF081FB1AF081FE00F084F808BD00BFD9
:101610005008030008B502481CF075FB08BD00BF68
:10162000500803002DE9F04180460F4601F10905FD
:101630000026344604E05B21082000F031FA013432
:10164000AC4233D2052C1BD801A353F824F000BFC1
:1016500037160000691600009D1600007116000084
:101660007516000079160000FBB20433D9B2E3E727
:101670008021E1E70021DFE7731C3146DEB2DBE7C2
:10168000BB1DA3420CD0FB1DA3420BD007F10803E6
:10169000A34209D0A31F18F80310CDE7D121CBE74F
:1016A0005A21C9E75A21C7E75D21C5E70020BDE8F7
:1016B000F08100BF00B583B002218DF80010002238
:1016C00005481AF0A2FE019008216846FFF7AAFF1C
:1016D00003B05DF804FB00BF006A180000B583B0DA
:1016E000044B1B88ADF8043001A81AF05EFF03B06C
:1016F0005DF804FB30A6020000B583B0044B1B88E4
:10170000ADF8043001A81AF01EFF03B05DF804FB29
:1017100030A602002DE9F0438DB0454D05AC05F132
:10172000040CBCE80F000FC49CE8070084E8070025
:101730004FF002098DF8109000248DF811402B8C89
:10174000ADF80C30AB8CADF808302B88ADF8043018
:1017500038481CF0D8FADFF8EC8040461CF0D3FA89
:1017600001268DF82260344B0793344F05A9384683
:101770001BF095FA3246042104A800F001FA224633
:10178000314603A800F0FCF93246042102A800F01B
:10179000F7F9324604210DEB010000F0F1F9284D74
:1017A0004FF00213C5F83036A3F58033C5F82C3658
:1017B000C5F834961C23C5F81C364FF448700EF05B
:1017C00005FFFFF78BFF14200EF000FFFFF794FFDB
:1017D00023200EF0FBFEFFF781FFB92138461BF0F6
:1017E000ACFAFFF789FF2246214604A800F0C8F9A9
:1017F0002246214603A800F0C3F93246214602A83A
:1018000000F0BEF93246214601A800F0B9F9384689
:1018100002F030F8C5F81C46C5F83046C5F82C462D
:10182000C5F8344640461CF073FA0DB0BDE8F083AD
:1018300030A602005008030000127A0000C00550D4
:1018400000C003504808030008B50448044A121AAF
:10185000921004491AF0FFFD08BD00BF40010000CE
:1018600080010000405E002008B500F02FF8FFF76F
:10187000EBFF124A0AE01068516850F8230041F863
:101880002300013391688B42F5D30C320C4B9A4202
:1018900001D20023F6E70B4A08E01168002041F866
:1018A0002300013351688B42F7D30832064B9A422A
:1018B00001D20023F6E7FFF717FB00BF8C5B0300A4
:1018C000985B0300985B0300985B030070B5144BB2
:1018D000144A9A60D3F8882042F47002C3F8882032
:1018E000114A4FF400419166104D05F500544FF038
:1018F000FF3222664FF6DF7262660222C3F8D02002
:10190000BFF34F8FBFF36F8F03200DF0EDFE4FF449
:101910004036E66003201CF00AFA2E6170BD00BF5D
:1019200000ED00E000000000009000500080004446
:1019300008B5064B1860064B1B6F03F00703032B1B
:1019400000D008BD1FF078FAFBE700BFE05E002082
:1019500000800050BFF34F8F0549CA6802F4E0626F
:10196000044B1343CB60BFF34F8F00BFFDE700BFB5
:1019700000ED00E00400FA05F0B18446F1B110B4C6
:1019800009E004F120000FE02033C01A18D1BCB1E7
:101990000CF1010C01319CF800400B4B1B5D03F076
:1019A0000303012BEDD020460B78074AD25C02F0EE
:1019B0000302012AE9D1E7E70120704701207047BF
:1019C0005DF8044B704700BF135A030010B582B096
:1019D000002401942A481CF096F98DF80040032356
:1019E0008DF8013001220421684600F0C9F8254B2A
:1019F0000122C3F8442401A905201FF0CCFE0028D1
:101A00003BD1214BD3F8F02042F00102C3F8F02083
:101A1000D3F8FC2042F08072C3F8FC20A3F55D43AC
:101A20001A4A1A60019B03F5D52303F2FC43DB0835
:101A3000174AA2FB03239B0A013B164A13610223A8
:101A4000C2F8F0304FF48073C2F804334FF06043B3
:101A5000114AC3F8B02F114AC3F8802ED3F8002ED4
:101A600042F48072C3F8002EFF2283F82020D3F8BE
:101A7000002E22F48072C3F8002E02B010BD00BF09
:101A80005008030000D0035000ED00E0FF030040C9
:101A900017916502000004E055CEACC509000100B5
:101AA0004FF06043D3F8803E13F0010F01D11120B5
:101AB00070470E4AD2F8FC3043F08073C2F8FC3015
:101AC0004FF06043D3F8002E4FF0010C0CFA00FCED
:101AD00042EA0C02C3F8002E53F82030002BE8D065
:101AE0004FF0604303F820100020704700ED00E045
:101AF00010B504460FE00123834024EA03040F28B5
:101B000014D800EB40020E4B03EB82035A6812B16B
:101B10009968C0B2904794B1234600201F28EAD8A4
:101B200013F0010FE7D101305B08F7E7103800EB45
:101B300040039B00B033024A13440433E6E710BD70
:101B4000FC13002008B50D481CF0DDF819200DF03D
:101B5000BBFD28B91A200DF0B7FD40B9002008BD23
:101B600019200DF0C1FD19201CF0E1F8F2E71A2050
:101B70000DF0BAFD1A201CF0DAF8EFE75008030068
:101B80002DE9F04168B30C46174605460F292AD8BF
:101B900003784BB1022B20D0032B20D0012B01D096
:101BA000002303E01F2301E040F2FF136A78D340D3
:101BB00013F0010F19D00F4BD3F81063BEB91FF00B
:101BC000C8FD80463A462146284601F085FE40463B
:101BD0001FF0BAFD3046BDE8F081FF23E6E70F2392
:101BE000E4E72226F6E72126F4E72126F2E702269B
:101BF000F0E700BF00C00350002865D02DE9F04198
:101C00000C4615461F46064600295FD002784AB1A9
:101C1000022A3ED0032A3ED0012A01D0002303E04D
:101C20001F2301E040F2FF137178CB4013F0010F46
:101C300001D1FF2A4CD1022D01D9042D4AD11FF028
:101C400088FD80463378FF2B27D12368B3F1FF3F0F
:101C50002AD02268B2F1FF3F31D01F4B02EB420283
:101C600003EB82025760226802EB420203EB82031D
:101C7000069A9A603378FF2B05D02268012393409F
:101C8000164AC2F8243440461FF05EFD0020BDE82D
:101C9000F081FF23C8E70F23C6E72A4621683046B4
:101CA00001F096FE2060D0E73378FF2BD1D10C4BAA
:101CB000D3F8241470781BF05AF82060C9E7404626
:101CC0001FF042FD2D20E2E7222070472220DEE7B0
:101CD0002120DCE72120DAE7FC13002000D00350AC
:101CE00000C0035008B5084BD3F82404D3F82024CF
:101CF000104000F0553020F0502003F50053C3F899
:101D00002004FFF7F5FE08BD00C0035008B5084BDE
:101D1000D3F82404D3F82024104000F0AA3020F097
:101D2000A02003F50053C3F82004FFF7E1FE08BD2F
:101D300000C00350F0B585B00C4694469DF83410B1
:101D4000664A1278002A00F0BD800546BCF1070FF4
:101D500000F2BA800A9A002A00F0B8800B9A002A92
:101D600000F0B6800E9AB2F5006F00F3B380012840
:101D70005BD05B4A02EB0C12127B002A00F0AC80B5
:101D800000220092019202920392564A02EB4C1EEC
:101D9000002C4FD14FEA4C1600209051CEF8040091
:101DA000CEF80800CEF80C009EF8020040F01000BB
:101DB0008EF802009EF8030040F030008EF8030019
:101DC00021B9C1B241F003018EF8031000930E9BBC
:101DD000013B444A4FEA4C1002EB4C11165A63F394
:101DE0000E1616520A9B8B600B9B4B60CB789DF8AE
:101DF0003C2062F38303CB70012D36D0109B002B67
:101E000056D0374A4FEA0C1102EB0C131098505081
:101E1000119A5A6000249C605D7372466946604660
:101E200001F058FB204605B0F0BD0C9A002AA0D165
:101E30002D48F8E72B4F4FEA4C1607EB4C120020C9
:101E4000B85150609060D060907840F01000907071
:101E5000D07840F00300D0700029B7D107EB4C12C6
:101E6000C1B241F03001D170B0E70E460A7B42F0BA
:101E700001020A73D2B242F002020A73CA68042154
:101E800061F39F02F26006F1100796E80F0087E801
:101E90000F00F2696FF0030161F39F02F2610C9B86
:101EA0007361012CAAD10B9AB2610C9A7260A5E7FA
:101EB000002DA6D10B4B03EB4C139A786FF3041251
:101EC0009A709EE70948AEE70748ACE70648AAE7DC
:101ED0000548A8E70448A6E70548A4E7B85D002040
:101EE0006416002064150020018000F0028000F0DC
:101EF000078000F0134B1B78FBB110B50446F0B11E
:101F00001FF027FC0023072B13D80F4A02EB031204
:101F1000127B0AB10133F6E723600B4A190102EB89
:101F2000031301241C73002454501FF00DFC2046A1
:101F300002E01FF009FC054810BD05487047054840
:101F4000FAE700BFB85D002064160020048000F0AE
:101F5000028000F0018000F038B51FF0FAFB044663
:101F60000023072B06DC0C4A02EB0312127B12B98A
:101F70000133F6E7002222B120461FF0E5FB0748B7
:101F800038BD01F053FA0025054B1D7020461FF0A7
:101F9000DBFB2846F4E700BF64160020058000F054
:101FA000B85D00200F4B1B78BBB110B50446072865
:101FB00015D81FF0CEFB0C4B03EB04131B7B1BB996
:101FC0001FF0C2FB09480BE0074B03EB041300248E
:101FD0001C731FF0B9FB204602E005487047054816
:101FE00010BD00BFB85D002064160020068000F020
:101FF000028000F0018000F000B583B0134B1B6835
:10200000019300238DF804301FF0A3FB104B1B78C5
:1020100033B90F4B01221A701FF096FB002309E021
:102020001FF092FB0B480EE00B4A02EB031200215B
:1020300011730133072BF7DD08238DF8073001A852
:1020400001F018FA002003B05DF804FB58A6020066
:10205000B85D0020038000F06416002010B5104C1D
:102060002478BCB1072817DC0E4C04EB0014247B49
:10207000A4B10C4C4FEA001E04EB001C44F80E30D7
:10208000029BCCF804300024CCF8084001F022FA7E
:10209000204610BD0448FCE70448FAE70448F8E786
:1020A000B85D002064160020028000F0018000F07E
:1020B000078000F008B50A4B1B785BB107280BD8E6
:1020C000084B03EB00131B7B43B1002101F0C4F963
:1020D000002008BD0448FCE70448FAE70448F8E794
:1020E000B85D002064160020028000F0018000F03E
:1020F000078000F008B50A4B1B785BB107280BD8A6
:10210000084B03EB00131B7B43B1012101F0A4F941
:10211000002008BD0448FCE70448FAE70448F8E753
:10212000B85D002064160020028000F0018000F0FD
:10213000078000F0F8B5194B1F6D5B6D1F4002D48E
:102140000125002402E0FEE701346D00072C24D8AD
:102150003D42F9D0124B1D652301124AD358002B82
:10216000F2D002EB0416B1680131B160726820460A
:10217000984780F00100C0B2737B012BE4D10028A6
:10218000E2D0094B03EB44131A7B6FF341021A733D
:102190001A7F6FF341021A77D6E7F8BD00000450AA
:1021A00000200450641600206415002038B5054650
:1021B0000C46174BD3F8240100F00700062823D85B
:1021C000DFE800F0040A121A1E0E1600012305B102
:1021D000286004B1236038BD1EF00EFE0523F6E72B
:1021E0001EF00AFE0623F2E71EF040FE0323EEE790
:1021F0001EF03CFE0423EAE71EF034FE0223E6E76D
:102200001FF091FA0723E2E700231846DFE700BF3B
:1022100000800050024B4FF480321A67704700BFB5
:102220000090005038B505460C46104BD3F800011D
:1022300000F00300032815D8DFE800F002080C10B6
:10224000012305B1286004B1236038BD1EF00EFEE5
:102250000323F6E71EF010FE0823F2E71FF063FAEF
:102260000723EEE700231846EBE700BF008000508D
:1022700038B505460C46104BD3F8200100F003009A
:10228000032815D8DFE800F002080C10012305B17F
:10229000286004B1236038BD1EF0AEFD0523F6E7CB
:1022A0001EF0E4FD0323F2E71EF0DCFD0223EEE75F
:1022B00000231846EBE700BF0080005038B5054604
:1022C0000C46104BD3F8400100F00300032815D84A
:1022D000DFE800F002080C10012305B1286004B10A
:1022E000236038BD1FF021FA0923F6E71EF0C4FD74
:1022F0000823F2E71FF01CFA0B23EEE70023184631
:10230000EBE700BF0080005008B50B4BD3F820323C
:1023100003F00303012B08D0022B09D008B10023DE
:10232000036021B100230B6001E0FFF7A1FF08BDAE
:10233000FFF7C4FFFBE700BF0080005038B505463B
:102340000C46104BD3F8600100F00300032815D8A9
:10235000DFE800F002080C10012305B1286004B189
:10236000236038BD1FF0E1F90923F6E71EF084FD74
:102370000823F2E71FF0DCF90B23EEE700231846F1
:10238000EBE700BF0080005070B582B006460D46F6
:10239000002301930D4BD3F8804104F00304012C7A
:1023A00009D0022C0DD000240EB1019B336005B181
:1023B0002C6002B070BD002101A8FFF759FF0F2467
:1023C000F2E71EF04FFD0190EEE700BF00800050E5
:1023D00038B505460C460F4BD3F8403203F00303E3
:1023E000022B0ED0032B10D0012B06D00023184651
:1023F00005B1286004B1236038BD1FF096F90923A8
:10240000F6E71EF039FD0823F2E71FF091F90B23E0
:10241000EEE700BF0080005038B505460C46134B70
:10242000D3F8000200F0070004281BD8DFE800F012
:1024300003090D111500012305B1286004B12360C3
:1024400038BD1FF072F90923F6E71EF015FD0823C9
:10245000F2E71FF06DF90B23EEE71EF0EDFC800AAA
:102460000E23E9E700231846E6E700BF008000508E
:10247000B0F5207F20D00ED8B0F5007F16D020D840
:1024800010B1B0F5C07F04D10F4B186FC0F303300B
:1024900018E0002016E0B0F5607F05D10A4BD3F8B4
:1024A0008000C0F301100DE000200BE0064BD3F8D4
:1024B0009000C0F3046005E0034B186FC0F3802068
:1024C00000E00020013070470080005038B505461C
:1024D0000C46174B4FF400329A660020FFF7C8FFF6
:1024E00005FB00F0134BDA6902F4803241F67131DA
:1024F000D9639B6823F440136CB90F49884207D80D
:1025000000210B430B498B600AB10022CA6338BD1E
:102510004FF48011F5E7002C07DD0749884201D808
:102520000021EEE74FF48011EBE74FF44011E8E7AC
:102530000090005000000350005A6202430907D087
:10254000012B0FD0022B01D0094A02E0094A00E01A
:10255000002200F01F0039B102F5805201238340B0
:1025600013607047044AF4E702F50052F6E700BF33
:1025700060820050688000506480005008B5802060
:102580001AF0A2F8034B984203D8034B4FF4803261
:102590001A6708BD005A620200A0005000B583B05F
:1025A00000230193B0F5807F7CD00FD9B0F5D06FB8
:1025B0007DD039D9B0F5006F4BD04FD9B0F5086F49
:1025C00067D101A90020FFF72DFE62E052281ED836
:1025D00024285ED324382E285BD8DFE800F05E5E26
:1025E0005E5E5A5A565A2F685A5A5A5A5A5A5A5A64
:1025F0005A5A6D5A5A5A5A45725A5A5A5A5A5A5A25
:102600005A5A5A5A5A5A5A5A5A5A5A5A5E0080288C
:102610003FD12E4B1B6F03F00703013B032B38D830
:10262000DFE803F030272A2DB0F5A06F44D00AD997
:10263000B0F5B06F29D0B0F5C06F2AD101A9002044
:10264000FFF73CFE25E0B0F5806F26D0B0F5906F27
:102650001FD101A90020FFF7A9FD1AE0B0F5E06F36
:102660002FD0B0F5F06F14D101A90020FFF766FE5E
:102670000FE0052301930CE00323019309E00723F6
:10268000019306E00223019303E001A90020FFF774
:102690007BFE019803B05DF804FB01A90020FFF761
:1026A000E7FDF6E701A9002019F0E9FFF1E701A92C
:1026B0000020FFF7B1FEECE701A90020FFF724FEA0
:1026C000E7E701A90020FFF783FEE2E70080005062
:1026D000044B4FF400225A6603F5804301229A62AC
:1026E000704700BF0090005010B504468020FFF7EF
:1026F00055FF032800F09E804F4B4FF400225A668E
:1027000003F5405345F60E02C3F8802003F58052CE
:102710000221916203F5005301229A62474B9B6D9F
:1027200013F4803FFAD1226863681B0543EA026311
:10273000227B43EA0243627B43EA0233A27B43EA01
:102740008213E27B13433D4A1361936903F0004314
:10275000216943EA8163616943EA0163217E43EAB7
:102760000143617E43EA0123A17E0B439361136A17
:1027700023F00D03E269002A43D111460B43E17EA9
:1027800043EA81031A432D4B1A62E369002B3AD1C5
:102790002A4A936A23F0330394F8201043EA411342
:1027A00094F8211043EA011343F001039362234B91
:1027B0009A6D234B9343FAD1204B03F580510222AB
:1027C0008A621A651D4B9B6D13F0804FFAD11B4B2B
:1027D0001A6922F47002A16842EA01521A6103F5F3
:1027E00080534FF000429A6194F8223013B9154B90
:1027F00002229A6294F82330ABB9124B01229A62FA
:1028000011E00821BAE70D4A936A23F0330394F8E4
:10281000201043EA411394F8221043EA410394F84C
:1028200023100B43936294F824301BB1034B064AE8
:10283000C3F8802010BD00BF0090005000C00050C1
:102840000300014000E00050F1A7FFFF70B51A4BF4
:102850009E6A9B6D13F4803F02D0184B01229A624E
:10286000154B03F58052022191629B6D13F4803F5A
:1028700004D0114B9B6D13F0020FFAD00F4B0222C4
:102880001A650D4B9B6D13F0804FFAD10A4DAC6960
:10289000C4F3072432460221094819F0D7FEAB6D74
:1028A00013F4803F01D1204670BD32460121044817
:1028B00019F0CCFEF7E700BF00C0005000D0005078
:1028C00028C00050014B1870704700BFBA5D00204F
:1028D000014B93F900007047BA5D0020F8B5254B15
:1028E0009E6AFF2843D805469B6D13F4803F02D0B3
:1028F000214B01229A621F4B03F580520221916203
:102900009B6D13F4803F04D01A4B9B6D13F0020FA4
:10291000FAD0194B02221A65164B9C6D14F08044B4
:10292000FAD1FFF7D5FF401903D4FF2802DDFF20BD
:1029300000E000200F4FBB6923F47F0323F47F43A3
:1029400043EA00432D02ADB22B43BB613246022164
:102950000A4819F07BFEB86D10F4803000D1F8BD44
:1029600032460121054819F071FE2046F7E7212083
:10297000F5E700BF00C0005000D0005028C0005054
:1029800008B51A4B9A6A03F5805301219962174BD7
:102990009B6D03F00303032BF9D1154B02219962C0
:1029A0001965124B9B6D13F0804FFAD10F4B996D47
:1029B000104B8B43FAD10E4B012119650B4B9B6DCC
:1029C00013F0020FFAD1094B9B6D13F0020FFAD0EE
:1029D000074B02211965054B9B6D13F0020FFAD0CE
:1029E0000321054819F032FE08BD00BF00C00050A9
:1029F00000D000500300010028C0005010B44378FC
:102A00004F2B28BF4F231A461C4B4FF480015966A9
:102A100003F5B8334FF4D151596203F580510224C4
:102A20004C6003F5005301215960154B1B6913F4E9
:102A3000803FFAD1037842EA0323114A5361416887
:102A400083681B0143EA0123017B43EA4103417B85
:102A50000B439360817BC37B1B0143EA4113017CE1
:102A600043EA4103417C0B435360837C1BB1134613
:102A70006FF4D1525A625DF8044B704700900050D9
:102A800000000250014B1880704700BF5E640020B8
:102A9000014B1880704700BF5C640020B0F5207FB8
:102AA00048D02DD8B0F5007F39D04CD810B1B0F552
:102AB000C07F24D110B54C1E19F0FFFD19F0A0FF06
:102AC000FFF7A8FB204A136F23F4704343EA043353
:102AD00013671EF0B1F91D4BD3F8843013F0100FBB
:102AE000F9D11A4BD3F88410C1F38111C1F102015D
:102AF00019F07BFF00F040F8FFF740FD10BD704774
:102B0000B0F5607F0AD101390F4AD2F8803023F046
:102B1000300343EA0113C2F880307047704701392F
:102B2000094AD2F8903023F0F85343EA0163C2F81F
:102B3000903070470139044A136F23F4806343EAED
:102B40008123136770477047008000500040005099
:102B500008B50121022000F01DF94FF42070FFF7A5
:102B600087FC044B187019F0A8FD19F049FFFFF716
:102B700051FB08BDB95D002008B54FF4C07019F0D5
:102B8000A3FD054B984205D902214FF42070FFF7B1
:102B900085FF08BD0121F8E780F0FA0210B5044670
:102BA0001EF04AF90F4BD3F8843013F0100FF9D10F
:102BB0000C4BD3F88410C1F38111C1F1020119F05B
:102BC00014FF0121002000F02BF924B1FFF7D4FFFE
:102BD000FFF7D4FC10BD044B19784FF42070FFF7B9
:102BE0005DFFF5E700400050B95D002090B9254B2E
:102BF00000221A60244B4FF400325A6603F59833D2
:102C00005B68012B00D07047204BD3F800211D4B8F
:102C10001A6070471B4B1B68002BF4D01C4A52688B
:102C2000012AF0D010B5194AC2F800318020FFF710
:102C3000B5FC052803D0174B01225A6010BD4FF494
:102C4000C070FFF715FC0446012815D0104B03F5A2
:102C500000520721116103F5805301225A600C4B89
:102C60001B6913F0010FFAD0012CE7D101214FF4B9
:102C7000C070FFF713FFE1E702214FF4C070FFF7C8
:102C80000DFFE3E7E41600200090005000800050A4
:102C900000C0015000D00150044A536F23F4407328
:102CA000417843EA01235367704700BF004000505A
:102CB00038B5054608BB154A136943F00403136190
:102CC0001EF0EAFA19F0A3FE114B5B6E13F0806F51
:102CD00003D0104B104AC3F820241EF031FD0446E7
:102CE0001EF0DAFE20461EF026FD19F091FE0DF0D2
:102CF0008FFB35B91EF0A0F838BD0020FFF776FF36
:102D0000D9E70120FFF772FFF6E700BF00ED00E012
:102D10000080005000E003500000FF0F38B505466A
:102D2000E8B9134A136943F004031361114B5B6E56
:102D300013F0806F03D0104B104AC3F820241EF00C
:102D4000ABFA1EF0FDFC04461EF0A6FE20461EF067
:102D5000F2FC0DF05DFB35B91EF06EF838BD0020B9
:102D6000FFF744FFDDE70120FFF740FFF6E700BF74
:102D700000ED00E00080005000E003500000FF0F75
:102D8000034AD36E23F0300301790B43D3667047B7
:102D900000400050F8B50446204BD3F8843013F0BF
:102DA000100FF9D11D4BD3F88430C3F381139C422B
:102DB0002DD01EF027F80646012C11D01EF0C0FCC5
:102DC0000546164F07F500534FF000725A6620462D
:102DD00019F026FE621E4FF4806393403B6706E0C5
:102DE000012119F002FEE9E70C4BD3F884300B4BBC
:102DF0005B6E13F0007F05D1084BD3F8843013F0DD
:102E0000200FF1D028461EF096FC022C00D0F8BD11
:102E10000021304619F0E9FDF9E700BF00400050FD
:102E200010B50C46034650B1094A127812B1094A4E
:102E3000934208D921460220FFF7ACFF10BD1DF0D8
:102E4000E1FF0346F0E721460120FFF7A3FFF5E786
:102E5000E8160020005A620208B50278034B1A7087
:102E600001210020FFF7DCFF08BD00BFE8160020AD
:102E700010B5304B4FF000425A6603F50B2303F5B3
:102E8000805201215160596C01F001014AF6CD32A6
:102E90001A6418BB9C6814F0010412D003F50053A7
:102EA00001229A600023244AD26A12F0010F04D151
:102EB000224A934201D80133F5E7204A93420BD8C6
:102EC00000241F4B01225A6011B11B4B1D4A1A648A
:102ED0001BF0B7FE204610BD0724F2E70023164A78
:102EE000D26A12F0080F04D0144A934201D8013379
:102EF000F5E7124A934218D80F4B03F500522020F1
:102F0000506203F5805301229A60002300E00133F0
:102F1000094A526A12F0200F02D1084A9342F6D9A8
:102F2000064A934203D80024CEE70724CCE70724BF
:102F3000CAE700BF00900050004009503F420F0018
:102F4000006009503254FFFFF8B51D4BDC6E24F0D1
:102F5000030444F00204DD6E45F003054AF6E8522E
:102F60001A661EF0EDFB0646FFF7F2FD154F3B6FAC
:102F700023F0070343F001033B670120FFF70EFE38
:102F80000020FFF775FF19F049FD19F048FD7B6E31
:102F900013F0806F03D00C4B0C4AC3F8202400239D
:102FA00003E0074AD466D5660133032BF9DD044BF1
:102FB000DC6603F510235B6A30461EF0BCFBF8BDEF
:102FC000004000500080005000E003500000FF0F60
:102FD00010B51B4B4FF000425A661A4A02F5805357
:102FE00001215960546C0C404AF6CD331364437888
:102FF0008B400B431449CB63936823F074038278AE
:1030000043EA0213C278C2B1042213430D4A93600B
:103010000179837943EA012313614179C37943EA52
:10302000012353610078FFF723FF14B1054B074AD2
:103030001A641BF006FE012010BD0022E5E700BF68
:103040000090005000400950004000503254FFFFF3
:10305000034B984201D0002070473820704700BFD2
:103060000000035A10B5044619F0DBFC0023E360AE
:10307000A36041F202022261E3616361A361236202
:103080006362E362A36404F5005202495164A362DF
:1030900010BD00BF7F370C0138B504461546084601
:1030A000F1B16368A36803F0E003402B23D01DD97E
:1030B000602B24D0802B12D10123400105FB03F3A8
:1030C000B0FBF3F020380F4A02EAC002E36C13F0C1
:1030D000010FFBD1A262E36C13F0010FFBD138BDED
:1030E0002046FFF7B5FF19F0EFFADAE72BB1202BF6
:1030F000F5D10823E1E70623DFE71023DDE704230A
:10310000DBE700BFF8FF7F0070B504460D461646AA
:10311000436823B1E36CC3F30A03002BFAD12046C2
:10312000FFF7A0FF236923F44C5323F003036A7BCA
:103130001343EA8913432A8A13432361A36823F0C4
:10314000804323F0E2032A7B13432A7E13436A69F8
:103150001343A360AB681BB9A36843F00043A360AB
:10316000EA69002A5FD0A168474B0B40117A43EA15
:103170008153917A43EA4143918801F4C0410B4362
:10318000517843EA8103517B43EAC103917B43EACF
:103190000113927843EA8223A360E36823F4D813EF
:1031A00023F4C063EA6911690B4351690B439179B8
:1031B00043EA8123D27943EA4223E360EB691B7837
:1031C000012B01D0032B03D1E36843F00403E36038
:1031D000EB691B78023BDBB2012B3CD92B4B012264
:1031E000C3F8C020EB695A7A04F580531A62EB6980
:1031F0005B7A1BB1E36843F40063E360EB69DB7A5D
:1032000053B1E36843F40043E360EB691B7B03F0D5
:103210000F031F4AC2F88030E36923F00303EA6911
:10322000D27B1343E36136B196F82030C3B104F585
:10323000805301229A610521204619F011FCAA68E9
:10324000EAB92978204619F00BFC236CDB4313F410
:10325000405FFAD170BD0F4B0122C3F8C020C1E717
:10326000636923F0090396F82220134396F821207E
:10327000134343F0010304F580525361DBE76968AF
:103280002046FFF709FFDCE7E39BBDFF00E40350A6
:103290000090035000D403502DE9F8430D46144626
:1032A0001E469DF820809DF82470072A29D8930097
:1032B00000FA03F203219940214819F008FC4FF06D
:1032C0000009072C29D8A10005F003028A40032336
:1032D00003FA01F11B4819F0FAFB5EB31A4A012305
:1032E000A3401360B8F1000F26D0184A13600122E2
:1032F000A2401749C1F8202407B3164A1360BDE85D
:10330000F883A2F108094FEA890300FA03F20321C6
:103310009940114819F0DBFBD3E74FEA890905F022
:10332000030202FA09F2032101FA09F10B4819F02C
:10333000CEFBD2E70A4AD2E70A4AD7E70A4ADDE7D4
:1033400000C4035008C4035010D4035014D40350D5
:1033500000E0035024D4035004C403500CC40350B1
:1033600010E4035014E4035024E40350F8B5044679
:103370000D461E46174662B14BB301228A4000EB50
:1033800040031B0103F1A04303F5703341F2100128
:103390005A50072D28D8A90004EB44031B0107FA53
:1033A00001F20F2000FA01F11E48184419F08FFBBA
:1033B00067B94EB30123AB4004EB4404240104F18C
:1033C000A04404F5703441F21002A350F8BD01226C
:1033D0008A4000EB40031B0103F1A04303F5703367
:1033E00042F210015A50D4E7A5F108039B0004EB08
:1033F000440C4FEA0C1C07FA03F20F2199400A48CB
:10340000604419F064FBD3E70123AB4004EB4404B0
:10341000240104F1A04404F5703442F21002A350D8
:10342000D4E700BF04C003500CC0035010B51520F2
:103430001AF079FC074B00245C65FF229A625C60FD
:1034400021462020FFF77AF821462120FFF776F861
:1034500010BD00BF0000045029B9044A012303FA3B
:1034600000F010607047024AF8E700BF40100450B7
:103470004020045010B5044601212020FFF75EF8DB
:1034800001212120FFF75AF8114B01225A602278BE
:1034900012069A606178A27842EA01429A61FF229C
:1034A0009A6200229A631A644FF000425A6503F54B
:1034B00000534FF0FF321A6515200CF015F9E17832
:1034C00015201AF038FC15201AF031FC10BD00BF91
:1034D0000000045070B50C46C3B201259D4022493E
:1034E00001F500531D6503F50053266843F820607D
:1034F000637B00EB400C01EB0C1CCCF8603094F8C3
:103500000AE0E37A1B0543EA0E4394F80CE043EA31
:103510004E53CCF85C3022F00302CCF870201EF041
:1035200018F9124B5D65237A1BB10F4A136C2B43BC
:103530001364637A1BB10C4A936B2B439363237917
:10354000A27942EA0342084B03F500518A6194F8DC
:1035500005C0E27942EA0C4203F58054A2614D6352
:103560009D641EF0F1F870BD00000450001004507E
:1035700010B5C0B2012484401EF0EBF8044B5A6D24
:1035800022EA04025A659C621EF0DEF810BD00BFFC
:103590000000045010B5C0B2012484401EF0D9F8D8
:1035A000084BDB6A234205D1064B5B6B9C4306D07C
:1035B000002400E000241EF0C7F8204610BD0124BE
:1035C000F9E700BF0000045070B50446C3B20125FE
:1035D0009D401EF0BEF8084B5E6B04EB440403EB09
:1035E00004135C6E1EF0B0F8354203D1C4F30A1028
:1035F000013070BD0020FCE70000045041B90630E6
:10360000084B53F8200020F0F8004004400C7047AD
:103610001230044B53F8200020F0F8004004400C16
:10362000704700BF0080035070B50446C2F3062601
:1036300002F0070241B942EA062242F4402206346F
:10364000094B43F8242070BD1146304619F077FA33
:103650000546304619F049FA45EA00251234024B76
:1036600043F82450EFE700BF0080035010B40C462D
:1036700081B90E4942EA034241F8202064B90C495D
:10368000D1F83435012282401343C1F834355DF856
:10369000044B70470749EDE70549D1F834350C3044
:1036A000012282401343C1F83435F0E738C5035096
:1036B00000C0035068C50350054B1868B0F1FF3FC8
:1036C00004D1044BD3F89400014B1860704700BF3D
:1036D000E45E0020004000500B784A7843EA820301
:1036E000CA7843EA42130A7943EA021300EB400224
:1036F000920002F1B04213630B78012B00D07047A7
:103700008A78024B43F82020F9E700BFE880035095
:103710004FF0B0435B680BB9002837D04FF0B0438F
:103720005B6843B14FF0B0435B6823B14FF0B043E7
:103730009B6A002BF6D180B1154B01225A604FF0E5
:10374000B0435B6823B14FF0B0439B6A002BF6D1C6
:103750004FF0B0430122DA6070474FF0B0435B682E
:1037600023B14FF0B0439B6A002BF6D14FF0B0432A
:103770000222DA604FF0B0435B6823B14FF0B043F0
:103780009B6A002BF6D1034B01225A60704700BFA1
:1037900000100058002000584FF0B0435B6843B160
:1037A0004FF0B0435B6823B14FF0B0439B6A002BEE
:1037B000F6D1154B01225A604378E3B11346827863
:1037C000DAB102221343C278CAB104221343027948
:1037D00043EA0213427943EAC2034FF0B0429360D6
:1037E00002F5805201235360037853B101224FF058
:1037F000B043DA6070470023E1E70022E2E70022ED
:10380000E4E70222F3E700BF00200058074B4FF423
:1038100080325A6603F5E6235B69C3F38512827032
:1038200003F03F0242701B0B037070470090005082
:10383000024B1868C0F30740704700BF0080E00FDC
:103840000A4B984207D00A4B984209D0C36D43F007
:103850008003C3657047A3F51033C3F88C11F5E7F7
:10386000A3F52033C3F89C11F0E700BF00C005505A
:103870000000065000F5805301225A6040F6AA630A
:10388000436100238360C36541F20502C2600361A6
:10389000C361C36400F500520C49916483650C4B0D
:1038A000984206D00B4B98420CD00A4B984204D158
:1038B00001E0002303650023436500F50050012368
:1038C0004360704700230365EFE700BFFFFF01007F
:1038D00000C005500000065070B504460D4616465F
:1038E00003784178374AD2F810236A1E0E2A09D885
:1038F000DFE802F00A0A0A0A0A0A0A0A0A0A0A0A97
:103900000A0A0A00002200E02A466DB16EB30120C7
:1039100000FA01F103EB43031B0103F1A04303F59C
:10392000703341F210001950617807292BD82378A1
:10393000890003EB43031B018A400F2000FA01F1C9
:103940002148184419F005FA75B95EB323786178F7
:1039500001228A4003EB43031B0103F1A04303F55B
:10396000703341F210015A5070BD012000FA01F18C
:1039700003EB43031B0103F1A04303F5703342F251
:1039800010001950D0E723780839890003EB43036E
:103990001B018A400F2000FA01F10C48184419F06D
:1039A000D8F9D1E72378617801228A4003EB4303F9
:1039B0001B0103F1A04303F5703342F210015A508A
:1039C000D2E700BF00C0035004C003500CC0035036
:1039D0002DE9F84305460C46164690F800804078DD
:1039E0002F4BD3F81033B1F1FF3F2FD0002C2ADB3F
:1039F000072C32DC4FEA8409032707FA09F708FA93
:103A000009F23946274819F0A4F96A7802F003024E
:103A100002FA09F23946244819F09BF916F0050F0D
:103A200031D00123A340214AC2F8103416F0060F0A
:103A30002FD00123A3401D4AC2F814340123A34010
:103A40001B4AC2F820342046BDE8F883144BD3F853
:103A5000241419F08CF90446C8E7A4F10807BF0044
:103A60004FF0030909FA07F908FA07F24946114825
:103A700019F06FF96A7802F00302BA4049460E481D
:103A800019F067F9CAE70123A340094AC2F81034C4
:103A9000CCE70123A340064AC2F81434CEE700BFA6
:103AA00000C0035000C4035008C4035000D00350AA
:103AB00000E0035004C403500CC4035038B505465D
:103AC000054C204619F010FBA5702146034B1868E1
:103AD0001BF05CF838BD00BFEC1600209C320020C3
:103AE00038B504468368196801200AF06DFA00B9F8
:103AF00038BDA368E26853F822301D68E8B2FFF7CA
:103B0000DDFFA3682A46024918680CF0ADFEEFE716
:103B10005CA6020010B504461DF012FE084B1B788F
:103B200053B9B4F5A05F09D8054B01221A70054CB2
:103B30001DF001FE204610BD0024F9E70024F7E740
:103B4000BB5D0020F4160020184B1B680BB1012050
:103B5000704710B5044641F27430FFF7DBFF0346AF
:103B6000124A1060C8B100F1680100F58052C2F835
:103B7000EC120021C2F8F01200F594500830C2F89F
:103B8000F4020120C2F8F802C2F8FC12C2F888124E
:103B900003F59453C2F89C3210BDA368044A8621F1
:103BA00018680CF0C5FE0020F6E700BFF42A0020DC
:103BB00068A602000C2A0AD80C2A61D8DFE802F0B5
:103BC0001417601B202560602A30363C4100FF2A14
:103BD00008D1002302283AD003284AD0002840D038
:103BE0002120704721207047294B1B68F2E7284BA2
:103BF0001B684C33EEE7264B1B6803F66803E9E7C6
:103C0000234B1B6803F50763E4E7214B1B6803F5AF
:103C10000863DFE71E4B1B6803F595530C33D9E7A8
:103C20001B4B1B6803F598530433D3E7184B1B68F1
:103C300003F598530933CDE7154B1B6803F59B53E8
:103C4000C8E7134B1B6803F59B530C33C2E7B1F570
:103C5000007F17D20E4A12681A3142F82130002034
:103C60007047122910D80A4A126842F82130002001
:103C7000704759B9064A1268C2F868380020704780
:103C80002120704721207047212070472120704754
:103C9000F42A002038B504461AF095FD012802D018
:103CA0000225284638BD002006F076FC054600288F
:103CB000F7D120461AF0B9FF084B1968084A01F5F8
:103CC00097510C3120460DF07BFD0022054B1A6008
:103CD000032120461AF07BFDE3E700BFF42A002011
:103CE000D9C301008043002000B50C286DD8DFE85F
:103CF00000F00711171D242B32396C41495158002F
:103D0000344800684FF04C0E01EB020CF4455ED8CD
:103D1000014453E02F4800684C304FF01A0EF3E78F
:103D20002C48006868304FF4006EEDE729480068C1
:103D300000F668004FF0080EE6E72648006800F538
:103D400007604FF0100EDFE72248006800F50860BA
:103D50004FF4206ED8E71F48006800F594504FF0EC
:103D6000080ED1E71B48006800F5945008304FF06A
:103D7000240EC9E71748006800F5985004304FF04A
:103D8000050EC1E71348006800F5985009304FF060
:103D9000560EB9E70F48006800F59B504FF00C0E27
:103DA000B2E70C48006800F59B500C304FF0050E50
:103DB000AAE713F8012B01F8012B0246501EC0B2EE
:103DC000002AF6D100205DF804FB2120FBE721202A
:103DD000F9E700BFF42A0020F0B585B004468268F8
:103DE000C368023352F823301D78FFF7ADFE002878
:103DF00039D06368E6689B1BEA1C93420BD10A2DFD
:103E000010D8A36853F826201078721C53F822307B
:103E1000198800231BE0A368174A802118680CF05A
:103E200087FD20E0A368154A812118680CF080FD09
:103E300019E0DA1C3244A76857F8222092F800C033
:103E400003F110026A4402F80CCC0133DBB2AB423E
:103E5000EFD301AB2A46FFF747FF30B9A368084903
:103E600018680CF001FD05B0F0BDA368054A822179
:103E700018680CF05DFDF6E788A60200BCA60200FB
:103E800008A70200ECA6020010B50446FFF75CFE8E
:103E900050B16268E368D21A032A06D0A368114AB7
:103EA000832118680CF044FD10BDA26852F823006D
:103EB000591C52F82110023352F823301A7809881D
:103EC0000078FFF777FE28B9A368074918680CF057
:103ED000CBFCE9E7A368054A842118680CF028FDAB
:103EE000E2E700BF20A7020008A7020040A70200E7
:103EF00010B50446FFF728FE00B910BD084B18683E
:103F0000FFF7C8FE28B9A368064918680CF0ACFC96
:103F1000F3E7A368044A852118680CF009FDECE773
:103F20009C32002008A702005CA70200F0B599B0FF
:103F300004468368196801200AF046F8002800F05A
:103F400089800DF1440C574D0FCDACE80F0095E87A
:103F500007008CE807000025069501238DF81C302A
:103F60004FF42873ADF81E3002238DF820308DF801
:103F700021308DF822308DF823300DF1240C0DF115
:103F8000440EBEE80F00ACE80F009EE807008CE886
:103F900007000B238DF840308DF841508DF84250CA
:103FA0008DF84350A768E56857F8256004223E491C
:103FB00030461CF03EFC002839D101238DF820301A
:103FC0008DF82230A168013551F825301B880B93FC
:103FD0000993E3689A1C51F8222012880C920A3A3D
:103FE0000A92DA1C51F822201288ADF81E2062686D
:103FF000D21A042A0ADD043351F823301B78003B1F
:1040000018BF0123294A13708DF84330082006F0A9
:10401000C3FAC8B906A9264B18680DF087FED8B1B7
:10402000A368244AC1B218680CF082FC12E0022294
:10403000214930461CF0FDFB0028C3D01F4A202137
:1040400038680CF075FC05E0A3681D4A2221186849
:104050000CF06EFC19B0F0BD154B1A68194B1A60C4
:10406000A3681D689DF8220009F00AFF04469DF828
:10407000200009F005FF0B9B0C9ABDF81E109DF85F
:10408000436066B1104E0496039102920193009032
:1040900023460E4A0E4928460CF0E6FBDAE70D4EA1
:1040A000F1E700BFACAE02009CA70200BC5D00209F
:1040B0009C320020E4A7020074200200A4A70200A2
:1040C000C4A70200F82A00208CA7020014A802004E
:1040D0001CA8020094A7020010B5836818680CF0B1
:1040E00061FB002408E0094B53F8342021460848BE
:1040F0000CF0DAFB0134E4B2072CF4D9034B53F88B
:104100003420214602480CF0EBFB10BD64AE0200E7
:1041100094A8020038B5044683681968012009F0A4
:1041200053FF00B938BD082006F036FA90B963682D
:10413000E2689B1A002B14DDA06850F82210097861
:10414000012B0FDD01290DD9224A222100680CF034
:10415000EFFBE7E7A368204A222118680CF0E8FB90
:10416000E0E70021012B07DDA068551C50F8250071
:10417000007808B141F00201022B07DDA36802328A
:1041800053F822301B780BB141F00401082911D8F3
:10419000124B03EBC1035B6863B1114A1068984787
:1041A000054670B1A368186895B10E4A0E490CF027
:1041B0005BFBB7E7A3680D4A012118680CF0B8FB58
:1041C000B0E70B4B01221A700B2008F037F8E9E733
:1041D000084AEBE7A8A80200C4A7020064AE0200E8
:1041E0009C3200209CA802000CA90200ECA802004E
:1041F0007064002014A8020038B50446836819686A
:10420000012009F0E1FE00B938BD082006F0C4F92C
:1042100068B9154B18681BF073F9054670B1A368AF
:104220001868FDB1114A12490CF01EFBECE7A368B7
:10423000104A222118680CF07BFBE5E70E4B0222A6
:104240001A70802007F0FAFF0C4B1B88102BE6D168
:104250000B4B1B780F2BE2D1094B18221A707022DE
:104260005A70DCE7074ADEE79C3200209CA8020077
:104270000CA90200C4A70200706400206064002042
:10428000685F002014A8020038B5044683681968E6
:10429000012009F099FE00B938BD082006F07CF92C
:1042A00068B9154B18681BF02DF9054670B1A36865
:1042B0001868FDB1114A12490CF0D6FAECE7A36870
:1042C000104A222118680CF033FBE5E70E4B02225E
:1042D0001A70E02007F0B2FF0C4B1B88102BE6D1C0
:1042E0000B4B1B780F2BE2D1094B18221A7070224E
:1042F0005A70DCE7074ADEE79C3200209CA80200E7
:104300000CA90200C4A702007064002060640020B1
:10431000685F002014A802002DE9F04385B0044630
:104320008268C36852F823100D78591C52F8211086
:1043300091F80080991C52F821100F78D91C52F87E
:1043400021100E784168C91A04293ADD043352F865
:10435000233093F80090B9F1000918BF4FF001091C
:10436000002D31D12946B8F1000F01D041F00401F0
:104370000FB141F002010EB141F00101B9F1000F9E
:1043800001D041F020011A4B18681BF01CF9E8B964
:10439000A36818680DB3174AB8F1000F1FD0154B6A
:1043A000FFB11449FEB1134CB9F1000F1DD0114DEE
:1043B00002950194009110490CF056FA05B0BDE841
:1043C000F0834FF00009CBE70821CCE7A3680B4A44
:1043D000232118680CF0ACFAF0E7094ADCE7084B37
:1043E000DEE70749DEE7064CDEE7054DE0E700BF04
:1043F0009C32002014A8020040A9020018A9020063
:104400009CA8020038B504468368C26853F822307D
:104410001D682946094B18681BF083F830B1A36862
:10442000074A242118680CF083FA38BDA3682A468D
:10443000044918680CF018FAF7E700BF9C32002016
:1044400090A90200B8A9020038B504468368C26882
:1044500053F822301D882946094B18681BF068F86C
:1044600030B1A368074A242118680CF061FA38BDFE
:10447000A3682A46044918680CF0F6F9F7E700BF6C
:104480009C320020CCA90200F4A9020038B50446F1
:104490008368C26853F822301D78291E18BF012195
:1044A0000A4B18681BF06FF838B9A36818685DB13B
:1044B000074A08490CF0D8F938BDA368064A2421F8
:1044C00018680CF035FAF7E7044AF2E79C3200204E
:1044D00014A802002CAA020008AA02009CA802004C
:1044E00038B504468368C26853F822301D78291E07
:1044F00018BF01210A4B18681BF037F838B9A368B8
:1045000018685DB1074A08490CF0AEF938BDA368D8
:10451000064A242118680CF00BFAF7E7044AF2E780
:104520009C32002014A8020064AA020040AA0200E3
:104530009CA8020010B504468068E36850F8232068
:1045400011886268D21A012A11DD013350F8233034
:104550001A78084B18681AF0F6FFA3681C6803F075
:104560007BFA0246044920460CF07EF910BD002279
:10457000EFE700BF9C32002078AA020010B5044685
:104580008068E36850F8232011886268D21A012AF3
:1045900011DD013350F823301A78084B18681AF0EF
:1045A000D8FFA3681C6803F057FA02460449204666
:1045B0000CF05AF910BD0022EFE700BF9C3200203A
:1045C0008CAA020010B582B0044600230BE0A1685B
:1045D000E2681A4451F82220117803F108026A4473
:1045E00002F8081C0133072BF1DD6368E2689B1AAF
:1045F000082B14DDA368083253F822301A78694674
:10460000084B18681AF0ABFFA3681C6803F024FA83
:104610000246054920460CF027F902B010BD0022E1
:10462000EDE700BF9C320020A4AA02002DE9F04172
:104630008AB0044601AD474E0FCE0FC50FCE0FC551
:1046400033682B6000273E4638E0A06873180022CC
:10465000114650F8230017F069F883B23DE0A068D6
:104660000B440022114650F8230017F05FF883B284
:1046700047E0A0680B440022114650F8230017F0D1
:1046800055F880468E4652E0EB00C3F1200CA3F1B2
:10469000200028FA03F20EFA0CFC42EA0C022EFA71
:1046A00000F0024328336B440B4403F8182C01310B
:1046B0000729E9DD0336F6B20137FFB2022F38D8F9
:1046C00032466368E1685B1A9E4232DA012EBCD83A
:1046D000A3680A4453F822301B883D460AAA02EB1D
:1046E000470222F8243C731CDBB26268E168521A6C
:1046F00093421EDA012BB2D8A2680B4452F8233041
:104700001B880AAA02EB450222F81E3CB31CDBB24E
:104710006268E168521A93420BDA012BA9D8A268A9
:104720000B4452F82330B3F800804FF0000E002104
:10473000BEE701A9084B18681AF003FFA3681C68BC
:1047400003F08AF90246054920460CF08DF80AB0BC
:10475000BDE8F081C8AE02009C320020BCAA020075
:1047600008B58368C26853F82220126803490A60BA
:10477000034918680CF078F808BD00BFFC2A002037
:10478000D4AA020030B583B004468368C26853F8E7
:1047900022301D682A464FF0FF31154B18681AF079
:1047A00000FFB8B905F00201C5F34003114A1370C8
:1047B000A368186815F0010F13D00F4A99B10E4B7A
:1047C00015F0040F11D00C4900910C490CF04CF875
:1047D00003B030BDA3680A4A1F2118680CF0A8F87E
:1047E000F6E7084AEAE7074BEAE70649ECE700BFC5
:1047F0009C320020BD5D00208CA70200FCAA0200B4
:10480000E8AA020094A7020030B583B0044683688A
:10481000C26853F822301D682A464FF0FF31164B0C
:1048200018681AF0CEFEB8B915F001031BD00221AA
:10483000124A1170A2681068BBB1114A15F0020F3C
:1048400015D00F4B15F0040F13D00D4900910D49F1
:104850000CF00AF803B030BDA3680B4A1F2118689A
:104860000CF066F8F6E70121E2E7084AE6E7074BB5
:10487000E8E70649EAE700BF9C32002070640020A8
:104880008CA702004CAB020038AB020094A70200D8
:10489000F8B504468268C36852F823100E780133D5
:1048A00052F823301D782F1E18BF0127311E18BF64
:1048B00001210F4B18681AF094FE10B95EB10D4E2D
:1048C00000E00D4E39460A4B18681AF098FE20B9E0
:1048D0005DB1084B02E0094EF4E7074BA068324691
:1048E000074900680BF0C0FFF8BD044BF6E700BFB6
:1048F0009C32002014A8020084AB02009CA8020095
:1049000090AB020038B504468068E36850F8232075
:10491000117805291CD80025AC4661B16268D21A0D
:10492000022A1CDD5A1C50F822201578023350F858
:10493000233093F800C0C1B94A4B1B88013303F000
:104940007F030122002A00F087804FF0000C78E0FE
:104950000B46454A1F2100680BF0EAFF7BE0434A03
:104960001F2100680BF0E4FF75E001290BD03D4BDF
:104970001A88043AC2F30A028B1E032B4ED8DFE8D2
:1049800003F01F2E3849B5F1000E18BF4FF0010E8D
:10499000BCF1000218BF012285B10221314B1B88F6
:1049A000023B11FA83F3C3F30A03D20242EA0E3246
:1049B000134393FAA3F31B0C0222C3E70421EDE790
:1049C00005F01F050CF0030CD20142EAC54242EA91
:1049D000CC03052924D093FAA3F30422B2E7003DC7
:1049E00018BF01250CF003035B0343EAC5331343EF
:1049F000EFE7B5F1000E18BF4FF0010EBCF1000C4F
:104A000018BF4FF0010C4FEACC2C4CEA0E3C42EAA6
:104A10000C03DEE7120602F0FE43DAE70023DAE7D2
:104A200004228FE74FEACC0EFF2101FA0EF1194064
:104A300021FA0EF10E4800F80C100CF1010C5FFA8F
:104A40008CFC6245EED8A0680A4900680BF00CFFA8
:104A5000204604F0ADF838BD074A1F2100680BF06E
:104A600067FFF8E760640020A8AB0200C0AB02005B
:104A7000685F0020DCAB0200F0AB020008B5C36841
:104A800043608368024A1F2118680BF051FF08BD7C
:104A900004AC020008B5C36843608368024A1F2162
:104AA00018680BF045FF08BD04AC02002DE9F04F7B
:104AB0009BB00446B94B1868002878D1B84B1E78D3
:104AC000002E00F05182B74B1F780BA920461AF038
:104AD0002AFB20461AF0D7FB0090BDF82E30BA1CF6
:104AE000934267D3192B0BD91923ADF82E30BDF89B
:104AF0003030182B04D91923ADF8303000230E9331
:104B00000BA910A818F04BF97B1CDBB207F1680267
:104B10006A4412F8285C2A4605F0070105294ED0A0
:104B20000237FFB268336B4413F8283C45EA03258B
:104B3000019505F44052AB0A03F03803690A01F00D
:104B400006010B43C5F380110B43974931F813104D
:104B50004FF6FF73994269D0B2F5005F6BD07B1CB2
:104B6000DBB207F168000DEB000717F828ACB2F5CF
:104B7000005F67D0080B00F0ED8101F00F02C1F378
:104B800003152A44C1F303210A4453FA82F3DBB22A
:104B90001844BDF82E20904200F3E18168336B4445
:104BA00013F8283CAA2B14BF00230123EAE11AF0D2
:104BB00088FB83E77D4A936A01339362E6E115F04F
:104BC000080F31D00237FFB268336B4413F8282C3A
:104BD00045EA0222930903F40273D10901F010019E
:104BE0000B43510A01F020010B43910801F4A0711D
:104BF0000B43910101F440610B43120202F4404265
:104C0000134343F4005545F0050513F44C438FD08E
:104C1000B3F5084F8CD0B3F50C4F89D0B3F5484F9E
:104C200086D085F0400583E71F46D3E75F4A936A45
:104C300001339362AAE115F4807F90D03B464FF098
:104C4000000A94E75A4AB2F84020ADF80820002242
:104C50008DF80A2001F00F098DF80890184609EB2D
:104C60000302BDF82EC062451BDCB9F1000F0FD066
:104C70005A1C6830684410F8280C8DF8090002337B
:104C8000DBB21AA850FA82F212F8282C8DF80A200A
:104C9000C1F303128DF814201A44944506DB012257
:104CA00016E0424A936A013393626FE13F4A936A86
:104CB000013393626AE1581C68336B4413F8287C13
:104CC00002F168036B4403F8547C0132D2B2C3B2E0
:104CD0009DF814709742EED2C1F3032B8DF80CB0FF
:104CE00018460BEB030294451ADBBBF1000F0FD003
:104CF0005A1C6830684410F8280C8DF80D000233F7
:104D0000DBB21AA850FA82F212F8282C8DF80E2085
:104D1000090B8DF8201019448C4506DB012216E0A2
:104D2000224A936A0133936230E1204A936A013345
:104D300093622BE1591C68336B4413F8280C02F181
:104D400068036B4403F8480C0132D2B2CBB29DF831
:104D500020809045EED210AB0493164B1B78BBB964
:104D600005F4A072019B1B0903F4406313432A015D
:104D700002F44042134343F4005242F00202B8F1FD
:104D8000000F1ED09DF82110AA2915D0002619E089
:104D9000002204A920461AF05DF9E1E7FC2A002070
:104DA000BD5D002070640020E0AC02001808002007
:104DB000ACAE0200BE5D002043F4005242F012028D
:104DC00000E00026804B197801F1010C5FFA8CFCA1
:104DD000049B5A548B1CDBB24FEA122E049800F845
:104DE0000CE015F4807F04D10331049800F803A08F
:104DF000CBB2910A01F03801500A00F006000143DD
:104E0000C2F380120A43714931F812004FF6FF7263
:104E100090422AD010F00F0F0ED0BBF1000F29D016
:104E20005A1CD2B29DF80D500499CD540233DBB216
:104E30009DF80E5004998D5410F0F00F3ED110F4EF
:104E4000706F49D0B9F1000F3AD1BBF1000F5ED0BD
:104E50005A1CD2B29DF80D500499CD540233DBB2E6
:104E60009DF80E5004998D5436E0594A936A0133E7
:104E700093628BE0B9F1000F0CD05A1CD2B29DF8AE
:104E800009500499CD540233DBB29DF80A500499BD
:104E90008D54D1E74E4A936A0133936276E0591CF0
:104EA00002F168056D4415F848CC049D05F803C06F
:104EB0000132D2B2CBB29045F1D2C0E70122FAE77B
:104EC0005A1CD2B29DF809500499CD540233DBB27A
:104ED0009DF80A5004998D54B0F5805F1CD25A1C7D
:104EE000D2B204990098C85437490978022922D0CF
:104EF000023304990B70049920461AF093FB18BBF7
:104F0000002E43D0324A136A013313623EE0304A26
:104F1000936A0133936239E001229742DFD3591C2F
:104F200002F16800684410F8545C0498C5540132DA
:104F3000D2B2CBB2F1E7049B1821197092FAA2F316
:104F4000CB4004994B70D6E706B3214A536A01332C
:104F500053621BE01E4A936A0133936216E01C4AB7
:104F6000936A0133936211E017A920461AF057FBA8
:104F700078B99DF86430032B10D09DF85C30AA2BD3
:104F800012D00023134A12789A420FD11BB0BDE809
:104F9000F08F0F4A936A01339362F7E79DF85C3014
:104FA000AA2BEAD10123EDE70123EBE720461AF013
:104FB00034FB20B9064A136A01331362E6E7044A58
:104FC000536A01335362E1E770640020E0AC0200F1
:104FD00018080020BC5D002038B504468368C2680C
:104FE00053F822301D782946084B18681AF045FB03
:104FF00030B9A3682A46064918680BF035FC38BD5D
:10500000A368044918680BF02FFCF8E79C320020D5
:1050100044AC020050AC020008B58368024918682D
:105020000BF022FC08BD00BF68AC020008B5836825
:10503000024918680BF018FC08BD00BF88AC0200DC
:1050400010B582B004468368C26853F822301B68EA
:10505000019301A9094B186819F0FAFC38B9A36843
:10506000019A074918680BF0FFFB02B010BDA36856
:10507000044AC1B218680BF05BFCF6E79C320020D2
:10508000B4AC0200C4AC0200F8B505467AB90023FE
:1050900003700BE0325D084928460CF085F80544A2
:1050A0000134A742F6DC002305F8013CF8BD0E46AA
:1050B00017460024F5E700BFF0AE020010B5044625
:1050C000074B18681AF0C1F8A3681B6828B1054A95
:1050D000054918460BF0C8FB10BD044AF8E700BFAD
:1050E0009C32002014A80200F8AE02009CA8020026
:1050F00010B504468368C26853F822301968003935
:1051000018BF0121044B18681AF09BF8E36863602C
:105110002046FFF7D3FF10BD9C3200202DE9F0415F
:1051200084B083681D4918680BF054FB002425E007
:105130001B4A03921B4A02921B4A019200912A4683
:10514000214616480BF06EFB0135032D15DC4FEAA6
:10515000840805EB8401154F3E19B278144B03EB1C
:10516000C1011148FFF790FF3B5DB178114A4244FD
:10517000525D002ADCD0104ADBE70134012C0ADC46
:105180000A4B23449A780D4901EBC4010548FFF707
:105190007BFF0025D9E704B0BDE8F0810CAF020029
:1051A0009CA80200002B0020302B0020602B002048
:1051B000702B0020682B002014A80200E85E00205D
:1051C00070B504464022002128481BF05CFB284BA8
:1051D00000221A605A60274B4FF0FF321A605A6063
:1051E0009A60DA60A668E56856F825301A68224B9E
:1051F0005A606068401B042802DC013800230FE07D
:105200000420FBE75A1C2A4456F8222003EBD371F2
:1052100092F800C0184A02EB610282F802C0013322
:1052200083420FDA13F0010FECD15A1C2A4456F8CE
:10523000221003EBD372521091F800C00E4901F80E
:1052400002C0ECE70C490D4B186819F0FCFF28B9B7
:10525000E36863602046FFF761FF70BDA368084AFA
:10526000302118680BF064FBF7E700BF702B0020BB
:10527000682B0020E85E0020602B00209C3200207C
:1052800050AF020070B582B08668C16856F8213010
:105290001D78012D0AD8044643685B1A092B0BDCE4
:1052A0004FF0FF3300930193002215E01B4A312198
:1052B00030680BF03DFB28E0194A322130680BF0D2
:1052C00037FB22E0531CC81856F82000007808323B
:1052D0006A4402F8080C1A4663685B1A013B934261
:1052E000F0DC6A4629460F4B186819F09EFF70B92A
:1052F0000D4B03EBC50302AA12E9030083E8030088
:10530000E36863602046FFF709FF02B070BDA36841
:10531000064A332118680BF00BFBF6E77CAF02005E
:1053200098AF02009C320020E85E0020B8AF020077
:1053300070B584B004468668C06856F82030197885
:10534000431C56F823301A7802EB810501290AD84C
:10535000032A08D863681B1A0A2B0BDC002302936C
:1053600003939C461AE0204A312130680BF0E0FAA2
:1053700004B070BD1D4A322130680BF0D9FAF7E74E
:105380000CF10203034456F8233093F800E00CF1CB
:1053900010036B4403F808EC0CF1010C63681B1A52
:1053A000023B6345ECDC124B03EB81039B5C0093F7
:1053B00002AB1048006819F03AFF68B90E4B03EBD6
:1053C000C50304AA12E9030083E80300E3686360ED
:1053D0002046FFF7A3FECBE7A368084A33211868ED
:1053E0000BF0A6FAC4E700BFD8AF020098AF0200E6
:1053F000682B00209C320020702B0020B8AF0200E8
:10540000F0B585B004468268C36852F823100E7860
:10541000591C52F821100F78023352F823301D78AE
:10542000003D18BF01253B46324629461248006818
:1054300019F005FFB8B9114B03EB8603DD55A368DE
:1054400018680F4B9A5D33449B789DB10D490391C9
:105450000D490291019300923B4632460B490BF0F5
:1054600003FA05B0F0BDA368094A342118680BF0AF
:105470005FFAF6E70749EAE79C320020682B002034
:10548000602B002014A80200302B002024B0020062
:1054900000B002009CA8020070B58CB00446012048
:1054A000384B1870A368196808F08EFD00283FD0AB
:1054B000A668E36856F823500422334928461BF0B7
:1054C000B8F9002836D12F4B01221A719A710023A6
:1054D000059306930793089309930A930B93A26885
:1054E000E368591C52F8211009880791059102338D
:1054F00052F823301B8808930A2B01D90A3B0693E4
:10550000A268E368033352F823301B881D4E738072
:105510001E4D05A928680CF00DF83146286819F0D1
:1055200087FDC0B1A3681A4AC1B218680BF000FA2F
:105530000CB070BD0222174928461BF07AF920B939
:10554000104B02221A719A71C1E7134A2021306868
:105550000BF0EEF9ECE7A3681E680A4D287908F015
:105560008FFC0446A87908F08BFC03466A880292F7
:10557000089A0192079A00922246084930460BF099
:1055800073F9D5E7B02B00209CA702009C320020C5
:1055900060B0020074200200A4A7020090B00200D4
:1055A000F0B583B00646104F386819F04FFD054638
:1055B000386819F05FFD0446386819F05FFD014650
:1055C000B368186855B1094A54B1094B51B108493B
:1055D000009108490BF048F903B0F0BD064AF3E723
:1055E000064BF3E70549F3E79C32002014A80200BC
:1055F000E4B00200F8B002009CA80200ECB0020087
:1056000010B584B00446104B1B88ADF80C30002256
:105610008DF80420ADF80620ADF80830ADF80A305A
:1056200001A90A4B186819F003FD30B9E3686360FB
:105630002046FFF7B5FF04B010BDA368044AC1B20D
:1056400018680BF075F9F1E770B102009C32002088
:105650002CB1020070B504468268C36852F823106A
:105660000978013352F823301E78094D003918BFEC
:105670000121286819F0FCFC311E18BF012128689F
:1056800019F0FAFCE36863602046FFF789FF70BDFC
:105690009C32002008B58168C36851F82320127835
:1056A000013351F823301B78003A18BF01220A4811
:1056B0000270003B18BF012308480370086832B12C
:1056C000074A33B1064B07490BF0CEF808BD064A2E
:1056D000F7E7054BF7E700BFDD5D0020DC5D00204C
:1056E0008CA7020044B1020094A7020008B58268AA
:1056F000C36852F823301B78003B18BF01230549CB
:105700000B70106823B1044A04490BF0ADF808BDD2
:10571000034AF9E7BE5D002014A8020060B1020050
:105720009CA8020010B50446074B186819F0CAFF80
:10573000A3681B6828B1054A054918460BF094F880
:1057400010BD044AF8E700BF9C32002014A80200F4
:1057500074B102009CA8020010B504468368C268B8
:1057600053F822301B787BB1032004F015FF20B9D9
:105770000A4B186819F093FF0AE0A368084A22212F
:1057800018680BF0D5F808E0044B186819F098FF7A
:10579000E36863602046FFF7C5FF10BD9C32002020
:1057A000C4A7020010B504464368C2689B1A012BC7
:1057B00004D1836853F822301B786BB9094B186801
:1057C0000CF024FBA3681C6802F046F90246064967
:1057D00020460BF049F810BD024B18680CF010FB86
:1057E000F0E700BF9C3200207CB1020010B50446F7
:1057F0004368C2689B1A012B04D1836853F8223096
:105800001B786BB9094B18680CF00CFBA3681C687B
:1058100002F022F90246064920460BF025F810BD99
:10582000024B18680CF0F8FAF0E700BF9C32002039
:105830007CB1020010B504460F4B186819F042FF06
:1058400090B1A368E26853F8223019780A4B1868BF
:1058500019F03EFFA3681C6802F0FEF802460749F3
:1058600020460BF001F810BDA368054A31211868E5
:105870000BF05EF8F7E700BF9C3200207CB102001D
:1058800088B1020010B504460C4B186819F01AFFD5
:1058900068B10A4B186819F022FFA3681C6802F06F
:1058A000DBF80246064920460AF0DEFF10BDA36879
:1058B000044A312118680BF03BF8F7E79C320020CE
:1058C0007CB1020088B102002DE9F04182B00446AB
:1058D0002D4B186819F0F6FEB8B16168E068091A36
:1058E000002919DDA36853F820301D78012915DD42
:1058F000A368421C53F822301E68022910DDA368F9
:10590000821C53F822301F680BE0A3681F4A312124
:1059100018680BF00DF82BE02525E7E71C4EECE7A7
:105920001C4F03290BDDA368033053F8203093F894
:105930000080B8F1000818BF4FF0010801E04FF0F7
:105940000008CDF800802B46324639460E480068E4
:1059500019F0F8FE88B9A36818682A46B8F1000F54
:1059600009D00D4B0193009733460C490AF07CFF98
:1059700002B0BDE8F0810A4BF4E7A368094A32217E
:1059800018680AF0D5FFF3E79C32002088B10200C6
:10599000D6BE898E555555009CA80200A0B10200C4
:1059A00014A80200E8B1020070B582B00446836812
:1059B000C26853F822301D782B4B186819F082FE0C
:1059C000002830D0A5F12503DBB2022B32D800230A
:1059D00000932B46254A26492348006819F0B2FE59
:1059E00000282ED1252D33D0262D35D0272D37D088
:1059F000A3682A461F4918680AF036FF1E4E1F4D3D
:105A00000FCD30607160B260F36007CD30617161BD
:105A1000B2611B4B1C221A80E3686360204603F0CE
:105A2000C7F802B070BDA368164A312118680AF0A1
:105A30007FFFF6E7A368144A302118680AF078FF60
:105A4000EFE7A368114A322118680AF071FFE8E70E
:105A5000002006F0F3FBCBE70C2006F0EFFBC7E7D6
:105A6000272006F0EBFBC3E79C320020D6BE898ED0
:105A70005555550028B20200685F002040B2020070
:105A80006064002088B102000CB20200E8B102009C
:105A900010B58368C26853F822301A783F4B5A70A9
:105AA000002A71D00021D97099804FF47A749C60DB
:105AB0003B4CDC603B4C1C614FF0250CA3F806C04E
:105AC000997019704168C368C91A012909DD846891
:105AD00003F1010C54F82C4094F800C02F4C84F8CA
